{
  "contractName": "ComplexStorage",
  "abi": [
    {
      "inputs": [],
      "stateMutability": "nonpayable",
      "type": "constructor"
    },
    {
      "inputs": [],
      "name": "get",
      "outputs": [
        {
          "internalType": "uint256",
          "name": "",
          "type": "uint256"
        }
      ],
      "stateMutability": "view",
      "type": "function"
    },
    {
      "inputs": [
        {
          "internalType": "uint256",
          "name": "newValue",
          "type": "uint256"
        }
      ],
      "name": "set",
      "outputs": [],
      "stateMutability": "nonpayable",
      "type": "function"
    },
    {
      "inputs": [],
      "name": "x",
      "outputs": [
        {
          "internalType": "uint256",
          "name": "",
          "type": "uint256"
        }
      ],
      "stateMutability": "view",
      "type": "function"
    },
    {
      "inputs": [],
      "name": "recall",
      "outputs": [],
      "stateMutability": "view",
      "type": "function"
    },
    {
      "inputs": [
        {
          "internalType": "uint256",
          "name": "_newVal",
          "type": "uint256"
        }
      ],
      "name": "changeRemoteValue",
      "outputs": [],
      "stateMutability": "nonpayable",
      "type": "function"
    }
  ],
  "bytecode": "0x608060405234801561001057600080fd5b5060016000556101f2806100256000396000f3fe608060405234801561001057600080fd5b50600436106100575760003560e01c80630c55699c1461005c5780635646238f1461007757806360fe47b11461008c5780636d4ce63c1461009f578063d4270d60146100a7575b600080fd5b61006560005481565b60405190815260200160405180910390f35b61008a61008536600461018a565b6100af565b005b61008a61009a36600461018a565b600055565b600054610065565b61008a610110565b6001546040516360fe47b160e01b8152600481018390526001600160a01b03909116906360fe47b190602401600060405180830381600087803b1580156100f557600080fd5b505af1158015610109573d6000803e3d6000fd5b5050505050565b600160009054906101000a90046001600160a01b03166001600160a01b0316636d4ce63c6040518163ffffffff1660e01b8152600401602060405180830381865afa158015610163573d6000803e3d6000fd5b505050506040513d601f19601f8201168201806040525081019061018791906101a3565b50565b60006020828403121561019c57600080fd5b5035919050565b6000602082840312156101b557600080fd5b505191905056fea264697066735822122060ab58c19d6225ac15c05972ac0130dc5c198446600f0ffcb377cff020b8ba7664736f6c63430008110033",
  "immutableReferences": {},
  "source": "// SPDX-License-Identifier: MIT\npragma solidity ^0.8.17;\n\nimport \"./SimpleStorage.sol\";\n\ncontract ComplexStorage is SimpleStorage{\n\n  SimpleStorage SSTO;\n  constructor() {}\n\n  function recall() public view {\n    SSTO.get();\n  }\n\n  function changeRemoteValue(uint _newVal) public {\n    SSTO.set(_newVal);\n  }\n\n}\n",
  "sourcePath": "/home/reguzz/divercitylabs/masterzdev/SimpleStorage/contracts/ComplexStorage.sol",
  "compiler": {
    "name": "solc",
    "version": "0.8.17+commit.8df45f5f.Emscripten.clang"
  },
  "schemaVersion": "3.4.14",
  "updatedAt": "2023-06-07T08:55:29.373Z",
  "devdoc": {
    "kind": "dev",
    "methods": {},
    "version": 1
  },
  "userdoc": {
    "kind": "user",
    "methods": {},
    "version": 1
  }
}