{
  "contractName": "Token",
  "abi": [
    {
      "inputs": [
        {
          "internalType": "string",
          "name": "_tokenName",
          "type": "string"
        },
        {
          "internalType": "string",
          "name": "_tokenSymbol",
          "type": "string"
        },
        {
          "internalType": "uint256",
          "name": "_supply",
          "type": "uint256"
        },
        {
          "internalType": "address",
          "name": "_wlAddress",
          "type": "address"
        }
      ],
      "stateMutability": "nonpayable",
      "type": "constructor"
    },
    {
      "anonymous": false,
      "inputs": [
        {
          "indexed": true,
          "internalType": "address",
          "name": "owner",
          "type": "address"
        },
        {
          "indexed": true,
          "internalType": "address",
          "name": "spender",
          "type": "address"
        },
        {
          "indexed": false,
          "internalType": "uint256",
          "name": "value",
          "type": "uint256"
        }
      ],
      "name": "Approval",
      "type": "event"
    },
    {
      "anonymous": false,
      "inputs": [
        {
          "indexed": true,
          "internalType": "address",
          "name": "previousOwner",
          "type": "address"
        },
        {
          "indexed": true,
          "internalType": "address",
          "name": "newOwner",
          "type": "address"
        }
      ],
      "name": "OwnershipTransferred",
      "type": "event"
    },
    {
      "anonymous": false,
      "inputs": [
        {
          "indexed": true,
          "internalType": "address",
          "name": "from",
          "type": "address"
        },
        {
          "indexed": true,
          "internalType": "address",
          "name": "to",
          "type": "address"
        },
        {
          "indexed": false,
          "internalType": "uint256",
          "name": "value",
          "type": "uint256"
        }
      ],
      "name": "Transfer",
      "type": "event"
    },
    {
      "inputs": [
        {
          "internalType": "address",
          "name": "owner",
          "type": "address"
        },
        {
          "internalType": "address",
          "name": "spender",
          "type": "address"
        }
      ],
      "name": "allowance",
      "outputs": [
        {
          "internalType": "uint256",
          "name": "",
          "type": "uint256"
        }
      ],
      "stateMutability": "view",
      "type": "function",
      "constant": true
    },
    {
      "inputs": [
        {
          "internalType": "address",
          "name": "spender",
          "type": "address"
        },
        {
          "internalType": "uint256",
          "name": "amount",
          "type": "uint256"
        }
      ],
      "name": "approve",
      "outputs": [
        {
          "internalType": "bool",
          "name": "",
          "type": "bool"
        }
      ],
      "stateMutability": "nonpayable",
      "type": "function"
    },
    {
      "inputs": [
        {
          "internalType": "address",
          "name": "account",
          "type": "address"
        }
      ],
      "name": "balanceOf",
      "outputs": [
        {
          "internalType": "uint256",
          "name": "",
          "type": "uint256"
        }
      ],
      "stateMutability": "view",
      "type": "function",
      "constant": true
    },
    {
      "inputs": [],
      "name": "decimals",
      "outputs": [
        {
          "internalType": "uint8",
          "name": "",
          "type": "uint8"
        }
      ],
      "stateMutability": "view",
      "type": "function",
      "constant": true
    },
    {
      "inputs": [
        {
          "internalType": "address",
          "name": "spender",
          "type": "address"
        },
        {
          "internalType": "uint256",
          "name": "subtractedValue",
          "type": "uint256"
        }
      ],
      "name": "decreaseAllowance",
      "outputs": [
        {
          "internalType": "bool",
          "name": "",
          "type": "bool"
        }
      ],
      "stateMutability": "nonpayable",
      "type": "function"
    },
    {
      "inputs": [
        {
          "internalType": "address",
          "name": "spender",
          "type": "address"
        },
        {
          "internalType": "uint256",
          "name": "addedValue",
          "type": "uint256"
        }
      ],
      "name": "increaseAllowance",
      "outputs": [
        {
          "internalType": "bool",
          "name": "",
          "type": "bool"
        }
      ],
      "stateMutability": "nonpayable",
      "type": "function"
    },
    {
      "inputs": [],
      "name": "name",
      "outputs": [
        {
          "internalType": "string",
          "name": "",
          "type": "string"
        }
      ],
      "stateMutability": "view",
      "type": "function",
      "constant": true
    },
    {
      "inputs": [],
      "name": "owner",
      "outputs": [
        {
          "internalType": "address",
          "name": "",
          "type": "address"
        }
      ],
      "stateMutability": "view",
      "type": "function",
      "constant": true
    },
    {
      "inputs": [],
      "name": "renounceOwnership",
      "outputs": [],
      "stateMutability": "nonpayable",
      "type": "function"
    },
    {
      "inputs": [],
      "name": "symbol",
      "outputs": [
        {
          "internalType": "string",
          "name": "",
          "type": "string"
        }
      ],
      "stateMutability": "view",
      "type": "function",
      "constant": true
    },
    {
      "inputs": [],
      "name": "totalSupply",
      "outputs": [
        {
          "internalType": "uint256",
          "name": "",
          "type": "uint256"
        }
      ],
      "stateMutability": "view",
      "type": "function",
      "constant": true
    },
    {
      "inputs": [
        {
          "internalType": "address",
          "name": "to",
          "type": "address"
        },
        {
          "internalType": "uint256",
          "name": "amount",
          "type": "uint256"
        }
      ],
      "name": "transfer",
      "outputs": [
        {
          "internalType": "bool",
          "name": "",
          "type": "bool"
        }
      ],
      "stateMutability": "nonpayable",
      "type": "function"
    },
    {
      "inputs": [
        {
          "internalType": "address",
          "name": "from",
          "type": "address"
        },
        {
          "internalType": "address",
          "name": "to",
          "type": "address"
        },
        {
          "internalType": "uint256",
          "name": "amount",
          "type": "uint256"
        }
      ],
      "name": "transferFrom",
      "outputs": [
        {
          "internalType": "bool",
          "name": "",
          "type": "bool"
        }
      ],
      "stateMutability": "nonpayable",
      "type": "function"
    },
    {
      "inputs": [
        {
          "internalType": "address",
          "name": "newOwner",
          "type": "address"
        }
      ],
      "name": "transferOwnership",
      "outputs": [],
      "stateMutability": "nonpayable",
      "type": "function"
    },
    {
      "inputs": [
        {
          "internalType": "address",
          "name": "_wlAddress",
          "type": "address"
        }
      ],
      "name": "setWLContractAddress",
      "outputs": [],
      "stateMutability": "nonpayable",
      "type": "function"
    }
  ],
  "bytecode": "0x60806040523480156200001157600080fd5b506040516200129c3803806200129c83398101604081905262000034916200043e565b8383600362000044838262000561565b50600462000053828262000561565b505050620000706200006a6200011060201b60201c565b62000114565b6001600160a01b038116620000cc5760405162461bcd60e51b815260206004820152601360248201527f41646472657373206e6f7420616c6c6f7765640000000000000000000000000060448201526064015b60405180910390fd5b600680546001600160a01b0319166001600160a01b03831617905562000106336200010084670de0b6b3a764000062000643565b62000166565b50505050620006a4565b3390565b600580546001600160a01b038381166001600160a01b0319831681179093556040519116919082907f8be0079c531659141344cd1fd0a4f28419497f9722a3daafe3b4186f6b6457e090600090a35050565b6001600160a01b038216620001be5760405162461bcd60e51b815260206004820152601f60248201527f45524332303a206d696e7420746f20746865207a65726f2061646472657373006044820152606401620000c3565b620001cc6000838362000237565b8060026000828254620001e0919062000663565b90915550506001600160a01b038216600081815260208181526040808320805486019055518481527fddf252ad1be2c89b69c2b068fc378daa952ba7f163c4a11628f55a4df523b3ef910160405180910390a35050565b6001600160a01b0382166200029d5760405162461bcd60e51b815260206004820152602560248201527f546f6b656e732063616e6e6f742062652073656e74206174205a65726f206164604482015264647265737360d81b6064820152608401620000c3565b600654604051633af32abf60e01b81526001600160a01b03848116600483015290911690633af32abf90602401602060405180830381865afa158015620002e8573d6000803e3d6000fd5b505050506040513d601f19601f820116820180604052508101906200030e919062000679565b6200035c5760405162461bcd60e51b815260206004820152601860248201527f7265636569766572206e6f742077686974656c697374656400000000000000006044820152606401620000c3565b620003748383836200037460201b620004f41760201c565b505050565b634e487b7160e01b600052604160045260246000fd5b600082601f830112620003a157600080fd5b81516001600160401b0380821115620003be57620003be62000379565b604051601f8301601f19908116603f01168101908282118183101715620003e957620003e962000379565b816040528381526020925086838588010111156200040657600080fd5b600091505b838210156200042a57858201830151818301840152908201906200040b565b600093810190920192909252949350505050565b600080600080608085870312156200045557600080fd5b84516001600160401b03808211156200046d57600080fd5b6200047b888389016200038f565b955060208701519150808211156200049257600080fd5b50620004a1878288016200038f565b60408701516060880151919550935090506001600160a01b0381168114620004c857600080fd5b939692955090935050565b600181811c90821680620004e857607f821691505b6020821081036200050957634e487b7160e01b600052602260045260246000fd5b50919050565b601f8211156200037457600081815260208120601f850160051c81016020861015620005385750805b601f850160051c820191505b81811015620005595782815560010162000544565b505050505050565b81516001600160401b038111156200057d576200057d62000379565b62000595816200058e8454620004d3565b846200050f565b602080601f831160018114620005cd5760008415620005b45750858301515b600019600386901b1c1916600185901b17855562000559565b600085815260208120601f198616915b82811015620005fe57888601518255948401946001909101908401620005dd565b50858210156200061d5787850151600019600388901b60f8161c191681555b5050505050600190811b01905550565b634e487b7160e01b600052601160045260246000fd5b80820281158282048414176200065d576200065d6200062d565b92915050565b808201808211156200065d576200065d6200062d565b6000602082840312156200068c57600080fd5b815180151581146200069d57600080fd5b9392505050565b610be880620006b46000396000f3fe608060405234801561001057600080fd5b50600436106100f55760003560e01c8063715018a611610097578063a9059cbb11610066578063a9059cbb146101eb578063dd62ed3e146101fe578063ec1baee414610211578063f2fde38b1461022457600080fd5b8063715018a6146101ab5780638da5cb5b146101b557806395d89b41146101d0578063a457c2d7146101d857600080fd5b806323b872dd116100d357806323b872dd1461014d578063313ce56714610160578063395093511461016f57806370a082311461018257600080fd5b806306fdde03146100fa578063095ea7b31461011857806318160ddd1461013b575b600080fd5b610102610237565b60405161010f9190610a10565b60405180910390f35b61012b610126366004610a7a565b6102c9565b604051901515815260200161010f565b6002545b60405190815260200161010f565b61012b61015b366004610aa4565b6102e3565b6040516012815260200161010f565b61012b61017d366004610a7a565b610307565b61013f610190366004610ae0565b6001600160a01b031660009081526020819052604090205490565b6101b3610329565b005b6005546040516001600160a01b03909116815260200161010f565b61010261033d565b61012b6101e6366004610a7a565b61034c565b61012b6101f9366004610a7a565b6103cc565b61013f61020c366004610b02565b6103da565b6101b361021f366004610ae0565b610405565b6101b3610232366004610ae0565b61047b565b60606003805461024690610b35565b80601f016020809104026020016040519081016040528092919081815260200182805461027290610b35565b80156102bf5780601f10610294576101008083540402835291602001916102bf565b820191906000526020600020905b8154815290600101906020018083116102a257829003601f168201915b5050505050905090565b6000336102d78185856104f9565b60019150505b92915050565b6000336102f185828561061d565b6102fc858585610697565b506001949350505050565b6000336102d781858561031a83836103da565b6103249190610b6f565b6104f9565b610331610846565b61033b60006108a0565b565b60606004805461024690610b35565b6000338161035a82866103da565b9050838110156103bf5760405162461bcd60e51b815260206004820152602560248201527f45524332303a2064656372656173656420616c6c6f77616e63652062656c6f77604482015264207a65726f60d81b60648201526084015b60405180910390fd5b6102fc82868684036104f9565b6000336102d7818585610697565b6001600160a01b03918216600090815260016020908152604080832093909416825291909152205490565b61040d610846565b6001600160a01b0381166104595760405162461bcd60e51b81526020600482015260136024820152721059191c995cdcc81b9bdd08185b1b1bddd959606a1b60448201526064016103b6565b600680546001600160a01b0319166001600160a01b0392909216919091179055565b610483610846565b6001600160a01b0381166104e85760405162461bcd60e51b815260206004820152602660248201527f4f776e61626c653a206e6577206f776e657220697320746865207a65726f206160448201526564647265737360d01b60648201526084016103b6565b6104f1816108a0565b50565b505050565b6001600160a01b03831661055b5760405162461bcd60e51b8152602060048201526024808201527f45524332303a20617070726f76652066726f6d20746865207a65726f206164646044820152637265737360e01b60648201526084016103b6565b6001600160a01b0382166105bc5760405162461bcd60e51b815260206004820152602260248201527f45524332303a20617070726f766520746f20746865207a65726f206164647265604482015261737360f01b60648201526084016103b6565b6001600160a01b0383811660008181526001602090815260408083209487168084529482529182902085905590518481527f8c5be1e5ebec7d5bd14f71427d1e84f3dd0314c0f7b2291e5b200ac8c7c3b925910160405180910390a3505050565b600061062984846103da565b9050600019811461069157818110156106845760405162461bcd60e51b815260206004820152601d60248201527f45524332303a20696e73756666696369656e7420616c6c6f77616e636500000060448201526064016103b6565b61069184848484036104f9565b50505050565b6001600160a01b0383166106fb5760405162461bcd60e51b815260206004820152602560248201527f45524332303a207472616e736665722066726f6d20746865207a65726f206164604482015264647265737360d81b60648201526084016103b6565b6001600160a01b03821661075d5760405162461bcd60e51b815260206004820152602360248201527f45524332303a207472616e7366657220746f20746865207a65726f206164647260448201526265737360e81b60648201526084016103b6565b6107688383836108f2565b6001600160a01b038316600090815260208190526040902054818110156107e05760405162461bcd60e51b815260206004820152602660248201527f45524332303a207472616e7366657220616d6f756e7420657863656564732062604482015265616c616e636560d01b60648201526084016103b6565b6001600160a01b03848116600081815260208181526040808320878703905593871680835291849020805487019055925185815290927fddf252ad1be2c89b69c2b068fc378daa952ba7f163c4a11628f55a4df523b3ef910160405180910390a3610691565b6005546001600160a01b0316331461033b5760405162461bcd60e51b815260206004820181905260248201527f4f776e61626c653a2063616c6c6572206973206e6f7420746865206f776e657260448201526064016103b6565b600580546001600160a01b038381166001600160a01b0319831681179093556040519116919082907f8be0079c531659141344cd1fd0a4f28419497f9722a3daafe3b4186f6b6457e090600090a35050565b6001600160a01b0382166109565760405162461bcd60e51b815260206004820152602560248201527f546f6b656e732063616e6e6f742062652073656e74206174205a65726f206164604482015264647265737360d81b60648201526084016103b6565b600654604051633af32abf60e01b81526001600160a01b03848116600483015290911690633af32abf90602401602060405180830381865afa1580156109a0573d6000803e3d6000fd5b505050506040513d601f19601f820116820180604052508101906109c49190610b90565b6104f45760405162461bcd60e51b815260206004820152601860248201527f7265636569766572206e6f742077686974656c6973746564000000000000000060448201526064016103b6565b600060208083528351808285015260005b81811015610a3d57858101830151858201604001528201610a21565b506000604082860101526040601f19601f8301168501019250505092915050565b80356001600160a01b0381168114610a7557600080fd5b919050565b60008060408385031215610a8d57600080fd5b610a9683610a5e565b946020939093013593505050565b600080600060608486031215610ab957600080fd5b610ac284610a5e565b9250610ad060208501610a5e565b9150604084013590509250925092565b600060208284031215610af257600080fd5b610afb82610a5e565b9392505050565b60008060408385031215610b1557600080fd5b610b1e83610a5e565b9150610b2c60208401610a5e565b90509250929050565b600181811c90821680610b4957607f821691505b602082108103610b6957634e487b7160e01b600052602260045260246000fd5b50919050565b808201808211156102dd57634e487b7160e01b600052601160045260246000fd5b600060208284031215610ba257600080fd5b81518015158114610afb57600080fdfea2646970667358221220edb6b106701ee0399b6ef9a84cbd274fc46e77de6662e0d1038911d33c0b3b7f64736f6c63430008110033",
  "immutableReferences": {},
  "source": "// SPDX-License-Identifier: MIT\npragma solidity >=0.4.22 <0.9.0;\n\nimport \"@openzeppelin/contracts/token/ERC20/ERC20.sol\";\nimport \"./interfaces/IWhitelist.sol\";\nimport \"@openzeppelin/contracts/access/Ownable.sol\";\n\ncontract Token is ERC20, Ownable {\n\n  address private wlContractAddress;\n  constructor(string memory _tokenName, string memory _tokenSymbol, uint256 _supply, address _wlAddress) ERC20(_tokenName, _tokenSymbol) {\n    // _mint(msg.sender,1000000*10**18);\n    require(_wlAddress != address(0), \"Address not allowed\");\n    wlContractAddress = _wlAddress;\n    _mint(msg.sender, _supply*10**18);\n  }\n\n  function _beforeTokenTransfer(address from, address to, uint256 amount) internal override {\n    // require(IWhitelist(wlContractAddress).isWhitelisted(from), \"sender not whitelisted\");\n    require(to != address(0), \"Tokens cannot be sent at Zero address\");\n    require(IWhitelist(wlContractAddress).isWhitelisted(to), \"receiver not whitelisted\");\n\n    super._beforeTokenTransfer(from, to, amount);\n  }\n\n  function setWLContractAddress(address _wlAddress) external onlyOwner {\n    require(_wlAddress != address(0), \"Address not allowed\");\n    wlContractAddress = _wlAddress;\n  }\n}\n",
  "sourcePath": "/home/reguzz/divercitylabs/masterzdev/SimpleStorage/contracts/Token.sol",
  "compiler": {
    "name": "solc",
    "version": "0.8.17+commit.8df45f5f.Emscripten.clang"
  },
  "schemaVersion": "3.4.14",
  "updatedAt": "2023-06-07T10:05:03.155Z",
  "networkType": "ethereum",
  "devdoc": {
    "kind": "dev",
    "methods": {
      "allowance(address,address)": {
        "details": "See {IERC20-allowance}."
      },
      "approve(address,uint256)": {
        "details": "See {IERC20-approve}. NOTE: If `amount` is the maximum `uint256`, the allowance is not updated on `transferFrom`. This is semantically equivalent to an infinite approval. Requirements: - `spender` cannot be the zero address."
      },
      "balanceOf(address)": {
        "details": "See {IERC20-balanceOf}."
      },
      "decimals()": {
        "details": "Returns the number of decimals used to get its user representation. For example, if `decimals` equals `2`, a balance of `505` tokens should be displayed to a user as `5.05` (`505 / 10 ** 2`). Tokens usually opt for a value of 18, imitating the relationship between Ether and Wei. This is the default value returned by this function, unless it's overridden. NOTE: This information is only used for _display_ purposes: it in no way affects any of the arithmetic of the contract, including {IERC20-balanceOf} and {IERC20-transfer}."
      },
      "decreaseAllowance(address,uint256)": {
        "details": "Atomically decreases the allowance granted to `spender` by the caller. This is an alternative to {approve} that can be used as a mitigation for problems described in {IERC20-approve}. Emits an {Approval} event indicating the updated allowance. Requirements: - `spender` cannot be the zero address. - `spender` must have allowance for the caller of at least `subtractedValue`."
      },
      "increaseAllowance(address,uint256)": {
        "details": "Atomically increases the allowance granted to `spender` by the caller. This is an alternative to {approve} that can be used as a mitigation for problems described in {IERC20-approve}. Emits an {Approval} event indicating the updated allowance. Requirements: - `spender` cannot be the zero address."
      },
      "name()": {
        "details": "Returns the name of the token."
      },
      "owner()": {
        "details": "Returns the address of the current owner."
      },
      "renounceOwnership()": {
        "details": "Leaves the contract without owner. It will not be possible to call `onlyOwner` functions. Can only be called by the current owner. NOTE: Renouncing ownership will leave the contract without an owner, thereby disabling any functionality that is only available to the owner."
      },
      "symbol()": {
        "details": "Returns the symbol of the token, usually a shorter version of the name."
      },
      "totalSupply()": {
        "details": "See {IERC20-totalSupply}."
      },
      "transfer(address,uint256)": {
        "details": "See {IERC20-transfer}. Requirements: - `to` cannot be the zero address. - the caller must have a balance of at least `amount`."
      },
      "transferFrom(address,address,uint256)": {
        "details": "See {IERC20-transferFrom}. Emits an {Approval} event indicating the updated allowance. This is not required by the EIP. See the note at the beginning of {ERC20}. NOTE: Does not update the allowance if the current allowance is the maximum `uint256`. Requirements: - `from` and `to` cannot be the zero address. - `from` must have a balance of at least `amount`. - the caller must have allowance for ``from``'s tokens of at least `amount`."
      },
      "transferOwnership(address)": {
        "details": "Transfers ownership of the contract to a new account (`newOwner`). Can only be called by the current owner."
      }
    },
    "version": 1
  },
  "userdoc": {
    "kind": "user",
    "methods": {},
    "version": 1
  }
}