{
  "contractName": "Whitelist",
  "abi": [
    {
      "inputs": [],
      "stateMutability": "nonpayable",
      "type": "constructor"
    },
    {
      "anonymous": false,
      "inputs": [
        {
          "indexed": true,
          "internalType": "address",
          "name": "previousOwner",
          "type": "address"
        },
        {
          "indexed": true,
          "internalType": "address",
          "name": "newOwner",
          "type": "address"
        }
      ],
      "name": "OwnershipTransferred",
      "type": "event"
    },
    {
      "inputs": [],
      "name": "owner",
      "outputs": [
        {
          "internalType": "address",
          "name": "",
          "type": "address"
        }
      ],
      "stateMutability": "view",
      "type": "function",
      "constant": true
    },
    {
      "inputs": [],
      "name": "renounceOwnership",
      "outputs": [],
      "stateMutability": "nonpayable",
      "type": "function"
    },
    {
      "inputs": [
        {
          "internalType": "address",
          "name": "newOwner",
          "type": "address"
        }
      ],
      "name": "transferOwnership",
      "outputs": [],
      "stateMutability": "nonpayable",
      "type": "function"
    },
    {
      "inputs": [],
      "name": "wlLength",
      "outputs": [
        {
          "internalType": "uint256",
          "name": "",
          "type": "uint256"
        }
      ],
      "stateMutability": "view",
      "type": "function",
      "constant": true
    },
    {
      "inputs": [
        {
          "internalType": "address",
          "name": "",
          "type": "address"
        }
      ],
      "name": "wlMembers",
      "outputs": [
        {
          "internalType": "bool",
          "name": "",
          "type": "bool"
        }
      ],
      "stateMutability": "view",
      "type": "function",
      "constant": true
    },
    {
      "inputs": [
        {
          "internalType": "address",
          "name": "_member",
          "type": "address"
        }
      ],
      "name": "isWhitelisted",
      "outputs": [
        {
          "internalType": "bool",
          "name": "",
          "type": "bool"
        }
      ],
      "stateMutability": "view",
      "type": "function",
      "constant": true
    },
    {
      "inputs": [
        {
          "internalType": "address",
          "name": "_member",
          "type": "address"
        }
      ],
      "name": "addToWhitelist",
      "outputs": [],
      "stateMutability": "nonpayable",
      "type": "function"
    },
    {
      "inputs": [
        {
          "internalType": "address",
          "name": "_member",
          "type": "address"
        }
      ],
      "name": "removeToWhitelist",
      "outputs": [],
      "stateMutability": "nonpayable",
      "type": "function"
    },
    {
      "inputs": [],
      "name": "getWLLength",
      "outputs": [
        {
          "internalType": "uint256",
          "name": "",
          "type": "uint256"
        }
      ],
      "stateMutability": "view",
      "type": "function",
      "constant": true
    }
  ],
  "bytecode": "0x608060405234801561001057600080fd5b5061001a33610028565b61002333610078565b610199565b600080546001600160a01b038381166001600160a01b0319831681178455604051919092169283917f8be0079c531659141344cd1fd0a4f28419497f9722a3daafe3b4186f6b6457e09190a35050565b610080610116565b6001600160a01b0381166100db5760405162461bcd60e51b815260206004820152601360248201527f41646472657373206e6f7420616c6c6f7765640000000000000000000000000060448201526064015b60405180910390fd5b6001600160a01b03811660009081526001602081905260408220805460ff19169091179055600280549161010e83610172565b919050555050565b6000546001600160a01b031633146101705760405162461bcd60e51b815260206004820181905260248201527f4f776e61626c653a2063616c6c6572206973206e6f7420746865206f776e657260448201526064016100d2565b565b60006001820161019257634e487b7160e01b600052601160045260246000fd5b5060010190565b61048e806101a86000396000f3fe608060405234801561001057600080fd5b50600436106100935760003560e01c806388ebe2e71161006657806388ebe2e7146101025780638da5cb5b14610125578063e43252d714610140578063f2fde38b14610153578063fe1ced5e1461016657600080fd5b80633af32abf146100985780634abd1269146100d95780635cbf8a17146100f0578063715018a6146100f8575b600080fd5b6100c46100a63660046103e2565b6001600160a01b031660009081526001602052604090205460ff1690565b60405190151581526020015b60405180910390f35b6100e260025481565b6040519081526020016100d0565b6002546100e2565b610100610179565b005b6100c46101103660046103e2565b60016020526000908152604090205460ff1681565b6000546040516001600160a01b0390911681526020016100d0565b61010061014e3660046103e2565b61018d565b6101006101613660046103e2565b610221565b6101006101743660046103e2565b61029a565b610181610338565b61018b6000610392565b565b610195610338565b6001600160a01b0381166101e65760405162461bcd60e51b81526020600482015260136024820152721059191c995cdcc81b9bdd08185b1b1bddd959606a1b60448201526064015b60405180910390fd5b6001600160a01b03811660009081526001602081905260408220805460ff19169091179055600280549161021983610428565b919050555050565b610229610338565b6001600160a01b03811661028e5760405162461bcd60e51b815260206004820152602660248201527f4f776e61626c653a206e6577206f776e657220697320746865207a65726f206160448201526564647265737360d01b60648201526084016101dd565b61029781610392565b50565b6102a2610338565b6001600160a01b03811660009081526001602052604090205460ff1661030a5760405162461bcd60e51b815260206004820152601760248201527f41646472657373206e6f742077686974656c697374656400000000000000000060448201526064016101dd565b6001600160a01b0381166000908152600160205260408120805460ff19169055600280549161021983610441565b6000546001600160a01b0316331461018b5760405162461bcd60e51b815260206004820181905260248201527f4f776e61626c653a2063616c6c6572206973206e6f7420746865206f776e657260448201526064016101dd565b600080546001600160a01b038381166001600160a01b0319831681178455604051919092169283917f8be0079c531659141344cd1fd0a4f28419497f9722a3daafe3b4186f6b6457e09190a35050565b6000602082840312156103f457600080fd5b81356001600160a01b038116811461040b57600080fd5b9392505050565b634e487b7160e01b600052601160045260246000fd5b60006001820161043a5761043a610412565b5060010190565b60008161045057610450610412565b50600019019056fea26469706673582212204ceffbf54b2f6210a443ce73bff05d57f35f3e453776148c5b9f09056f68b95464736f6c63430008110033",
  "immutableReferences": {},
  "source": "// SPDX-License-Identifier: MIT\npragma solidity >=0.4.22 <0.9.0;\n\nimport \"@openzeppelin/contracts/access/Ownable.sol\";\nimport \"./interfaces/IWhitelist.sol\";\ncontract Whitelist is Ownable, IWhitelist {\n  \n  mapping(address => bool) public wlMembers;\n  uint256 public wlLength;\n\n  constructor() {\n    addToWhitelist(msg.sender);\n  }\n\n  function isWhitelisted(address _member) public view override returns (bool){\n    return wlMembers[_member];\n  }\n\n  function addToWhitelist(address _member) public onlyOwner {\n    require(_member != address(0), \"Address not allowed\");\n    wlMembers[_member] = true;\n    wlLength ++;\n  }\n\n  function removeToWhitelist(address _member) public onlyOwner {\n    require(isWhitelisted(_member), \"Address not whitelisted\");\n    wlMembers[_member] = false;\n    wlLength --;\n  }\n\n  function getWLLength() external view override returns (uint256) {\n    return wlLength;\n  }\n}\n",
  "sourcePath": "/home/reguzz/divercitylabs/masterzdev/SimpleStorage/contracts/Whitelist.sol",
  "compiler": {
    "name": "solc",
    "version": "0.8.17+commit.8df45f5f.Emscripten.clang"
  },
  "schemaVersion": "3.4.14",
  "updatedAt": "2023-06-07T10:05:03.164Z",
  "networkType": "ethereum",
  "devdoc": {
    "kind": "dev",
    "methods": {
      "owner()": {
        "details": "Returns the address of the current owner."
      },
      "renounceOwnership()": {
        "details": "Leaves the contract without owner. It will not be possible to call `onlyOwner` functions. Can only be called by the current owner. NOTE: Renouncing ownership will leave the contract without an owner, thereby disabling any functionality that is only available to the owner."
      },
      "transferOwnership(address)": {
        "details": "Transfers ownership of the contract to a new account (`newOwner`). Can only be called by the current owner."
      }
    },
    "version": 1
  },
  "userdoc": {
    "kind": "user",
    "methods": {},
    "version": 1
  }
}